:10000000A01A0020D1490100BD280000C12800002D
:10001000A70A0A010001000004180FAC606747013D
:1000200000000000000000000000000000000000D0
:1000300000000000A0E90200000000000000000035
:100040000000000000000000FFFFFFFFFFFFFFFFB8
:10005000FFFFFFFF0070070000000000000000002D
:10006000FFFFFFFFFFFFFFFF280000000000000070
:100070000000000000000000000000000000000080
:1000800000000000000000007842002078420020BC
:10009000A01A00207433030000BF020040110020AA
:0C00A0001C1100200000080000000000FF
:10010000A01A0020D1490100BD280000C12800002C
:100110002D730000C5280000CD280000CD49010046
:10012000CD490100CD490100CD490100CD49010073
:10013000D1280000CD490100CD490100CD49010081
:100140000545000059480100B92B00004429000072
:10015000D13F0100C5480100654801007D4801000C
:100160005D480100213B0000F53B0000F556000012
:10017000B98C0000442900004429000044290000F3
:10018000CD49010044290000193C00004429000029
:1001900044290000442900004429000044290000AB
:1001A000442900004429000044290000442900009B
:1001B000C948010061480100AD2D0100C5420000A1
:1001C00009490100442900008D2D01004429000047
:1001D000442900004429000044290000442900006B
:1001E00044290000CD490100CD4901004429000007
:0C01F0004429000044290000CD49010012
:1001FC00F8B500BFF8BC08BC9E467047F8B500BF08
:10020C00F8BC08BC9E46704710B5054C237833B932
:10021C00044B13B10448AFF300800123237010BDCD
:10022C0000200020000000000C2E030008B5034B3A
:10023C001BB103490348AFF3008008BD0000000068
:10024C00042000200C2E0300154B002B08BF134B71
:10025C009D46A3F5803A00218B460F461348144A5D
:10026C00121A2BF02FFE0F4B002B00D098470E4B81
:10027C00002B00D098470020002104000D000D48F1
:10028C00002802D00C48AFF300802BF0DDFD2000DD
:10029C00290008F021FF2BF0C3FD00BF000008006F
:1002AC00A01A002000000000000000000020002028
:1002BC007842002000000000000000002DE9F0470B
:1002CC00314E324D324C4FF0000985F8009009F058
:1002DC0003FD96F800803746B8F1000F08D10120D5
:1002EC0002F05AFB0623337084F80080BDE8F087D7
:1002FC00284E96F800A0B046BAF1000F07D10120A5
:10030C0002F04AFB2C23337084F800A0EEE7224B5A
:10031C001A7862B10120207083F8009002F02AFB59
:10032C0040F6B8312846BDE8F0471AF083BC48B90E
:10033C001A4B1B7833B90120207002F03FFB4FF4AD
:10034C002F71EFE7431EDBB2012B15D8237853B185
:10035C00012002F033FB98F80030013B88F80030A4
:10036C00C8210A48DFE7022806D1012002F026FB4B
:10037C003B78013B3B70F3E7012002F00DFB074A91
:10038C00002323701370B1E7BD1A0020403C0020FD
:10039C001E200020BC1A00201D2000201F20002041
:1003AC001FB50A4B1B78102B0CBF012300238DF8B3
:1003BC000F301023009300220DF10F0306210120B2
:1003CC000AF0D5FD05B05DF804FB00BF212000202C
:1003DC0008B5FFF7E5FF03490348BDE808401AF0EC
:1003EC0029BC00BFE0930400303C002038B5124D0E
:1003FC00012029460BF044FE104901200BF040FE71
:10040C000F4901200BF03CFE07F034FF1DF0CEFB32
:10041C0001F056FC01F070FC0A4B0B4801241C70D7
:10042C001AF0FCFB204609490BF02AFE294620460F
:10043C00BDE838400BF024BEDFC002003EC0020015
:10044C0066C002001D200020403C002075C0020048
:10045C00F8B5164C164F174E227817490120002577
:10046C0035700BF00DFE3A78144901200BF008FEA4
:10047C003B78C3B1237873B9012340F6B8313046C9
:10048C0023701AF0D7FB09F027FC03280DD1BDE827
:10049C00F84001F0E1BB0A4901200BF0F1FD257099
:1004AC00FFF7A4FFEFE72370EDE7F8BD2020002055
:1004BC001C200020383C0020F3BF02000EC00200BC
:1004CC0028C00200044B1B78102B4FF0020001D106
:1004DC0002F050BA02F060BA2120002030B585B08D
:1004EC000123009300220DF10F03062105460AF0AB
:1004FC008FFD044698BB0A22062108200DF018FB3C
:10050C0020460DF051FB10200DF042FB102009F09D
:10051C00CDFE01460DF10F000DF05EFB08212846C3
:10052C000DF08EFA114B124A1B8800922146114A8B
:10053C00204609F015F8104904200BF0A1FD9DF898
:10054C000F200E4B6AB110220D491A7004200BF0CB
:10055C0097FD094904200BF093FDFFF7B3FF05B09D
:10056C0030BDEF221A700749F0E700BF963F00201C
:10057C00983F00208A3F0020DFC00200212000208D
:10058C0000BF02000BBF0200014902481AF052BB27
:10059C00E0930400303C00201FB5044617490120AD
:1005AC000BF06EFD164901200BF06AFD1549012078
:1005BC000BF066FD902C13D0912C03D11249042022
:1005CC000BF05EFD0E4901200BF05AFD0B4901208A
:1005DC000BF056FD0D481AF021FB002004B010BDA5
:1005EC000B4904200BF04CFD0223009300220DF16B
:1005FC000E03032101200AF00BFDE3E7DFC002002C
:10060C0099BF0200BFBF0200D5BF0200403C0020D2
:10061C00E5BF020010B5114C042021460BF030FD53
:10062C000F4904200BF02CFD0E4904200BF028FD83
:10063C000D4904200BF024FD0C4904200BF020FD87
:10064C00214604200BF01CFD094B0A4801226421B1
:10065C00BDE810401A701AF0EDBA00BFDFC00200FE
:10066C003EC002004FBF020085BF020075C00200F1
:10067C001D200020403C002010B5144904460120E8
:10068C000BF0FEFC124901200BF0FAFC1149012081
:10069C000BF0F6FC902C10D10F4901200BF0F0FC64
:1006AC000E481AF0BBFA0A4901200BF0E9FC074985
:1006BC000120BDE810400BF0E3BC094901200BF010
:1006CC00DFFC084B01221A70EAE700BFDFC0020012
:1006DC0099BF020017BF02003CBF0200403C002043
:1006EC0047BF02001F200020FFF7F8BE09B9FFF733
:1006FC00F5BE70470031034B034818BF0121197038
:10070C001AF08CBA1C200020383C0020C37B10B59A
:10071C0004460BB1832010BDC37C012B0BD003D33B
:10072C00022B0BD08120F6E707F032FF48B9E37BB0
:10073C00002BEFD1F6E707F03BFFF7E707F048FF98
:10074C00F4E70020E7E738B5C37B002B437D14BFEB
:10075C008325C325012B044611D10368028A5988CD
:10076C00587909F0BBFF50B123685B88032B02D189
:10077C00E37B13B18325284638BD8125FBE7637DD8
:10078C00002BF8D12368228A5988587909F09DFFEB
:10079C000028F0D023685B88032BE9D0062B02D00D
:1007AC00002BE8D1E4E72046BDE83840FFF7AEBFA8
:1007BC007047012070470120704701207047704737
:1007CC00B520704770477047002070470020704775
:1007DC0000207047002070470020704700207047B1
:1007EC00002070477047002070470120704701209F
:1007FC007047B520704700207047002070470020DC
:10080C00704700207047704700207047B520704734
:10081C007047002070477047812070470020704758
:10082C00842070477047704700207047034B1B684B
:10083C001878012808BF0220704700BF84350020BB
:10084C007047002070470020704700207047002040
:10085C007047002070470020704700207047002030
:10086C007047002070477047B520704700207047D4
:10087C0000207047704700207047704770477047E2
:10088C00704700207047B5207047704770470020B4
:10089C007047704770470000094A0023FF2113700E
:1008AC0082F8783082F8653082F8773082F87930C7
:1008BC0082F87A1082F87B30024A1360704700BFCE
:1008CC0022200020483C0020F8B50D468C680A68B0
:1008DC0028490646202002F0AAFE6B687BB92649FF
:1008EC00202002F0A4FE202007F0ACFF234920209A
:1008FC0002F0B2FE2020BDE8F84007F0A3BF002EA6
:10090C00F1D01F4D1F4E204F013C14F8013F23B96D
:10091C001A49202002F0A0FEE5E7752B18D0762BA3
:10092C0018D0772B18D0732B18D0722B18D0712BA2
:10093C0018D0622B18D06E2B18D02A2B18D0134934
:10094C00134A212B18BF1146202002F070FEDCE761
:10095C002946F9E73146F7E73946F5E70D49F3E75C
:10096C000D49F1E70D49EFE70D49EDE70D49EBE7CF
:10097C000D49E9E7A601030030C10200E1C0020005
:10098C00EEC00200E2C00200F9C002003AC102004F
:10099C0037C1020005C102000FC102001AC10200DA
:1009AC0025C102002FC1020034C10200F0B5214A5A
:1009BC0092F87B30184452FA80F01F4B90F865C0C7
:1009CC0090F866501F78A5EB0C050026EDB230466A
:1009DC00F4B2A54225D90CEB060313445B7811B194
:1009EC000CB92D2B17D0782B1FD0582B05D108B153
:1009FC0037240AE0013C012C14D9602B17D8402B6A
:100A0C00F6D83A2B34BF302400241B1BDBB29F4298
:100A1C0003D900FB07300136DAE7052382F8793079
:100A2C000020F0BD10270020F5E70028E2D0572465
:100A3C00EBE700BF22200020BE1A0020014B1B68F0
:100A4C0018687047483C0020FFF726BF034B93F80B
:100A5C00770093F87B30C01AC0B270472220002078
:100A6C000021FFF7A3BF000010B50A4B93F87B20C1
:100A7C00024453FA82F292F8652013445C78A4F194
:100A8C002D0359425941FFF791FF2D2C08BF4042CD
:100A9C0010BD00BF2220002030B50C4A92F87B30EC
:100AAC000344C043DBB2C00F39B1D51895F866408A
:100ABC0095F86550641B241A0C7042FA83F393F872
:100ACC0065301844024B184430BD00BF2220002072
:100ADC0023200020F7B50E460DF1070115461C46E4
:100AEC00FFF7DAFF9DF80730AB42074688BF8DF859
:100AFC0007501CB19DF807402C1BE4B2224630462F
:100B0C00002100F07BFB30199DF80720394600F0DE
:100B1C0019FB9DF8070003B0F0BD38B508220C4650
:100B2C000123FFF7D7FF04F10803621E043413F806
:100B3C00011D12F8015F1D70A3421170F7D138BD71
:100B4C0038B5014605460120FFF7BEFED5E9014345
:100B5C006CB91C46084D236863B12946202002F06D
:100B6C0066FD21460020FFF7AFFE0C34F3E71B783F
:100B7C006E2BEFD038BD00BF0304030008B5044949
:100B8C00202002F054FD2020BDE8084007F05ABE9A
:100B9C00A2C0020038B5FFF7F1FF064D0024611921
:100BAC000C34631953F80C3C03B938BD0020FFF723
:100BBC008BFEF4E7C8CD02002DE9F84F1F4B204DFA
:100BCC0053F820201F49202002F031FD2B681BB95F
:100BDC00BDE8F84FFFF7DEBF1B4FDFF874A0FFF73F
:100BEC00CDFF0026B94697F87B30F4B2013B9C420E
:100BFC0004DB2868BDE8F84FFFF7A2BF47FA86F37D
:100C0C004C4493F865800023C84494F8662094F80B
:100C1C006510521A03F1010BD2B2DBB2934205D329
:100C2C000A49202002F003FD0136DCE7434451461B
:100C3C005A78202002F0FBFC5B46E6E7C01A002045
:100C4C00483C00209DC00200222000200404030028
:100C5C001C0703002DE9F74F884C94F87730002BD4
:100C6C0000F0A280864B1B7813F0010F04F10107F2
:100C7C001FD00025834E14E06319202093F86620C2
:100C8C0093F86530D21A44FA85F3D2B293F8651012
:100C9C00394407F0D2FD3146202002F0C8FC013562
:100CAC00EDB294F87730AB42E6D87749202002F0C9
:100CBC00BEFC94F877300193DFF8D8E1734B002633
:100CCC0071461EF8012B91F801C04FF00008ACEBF7
:100CDC00020C07EB020A5FFA8CFC454618680028E8
:100CEC0052D00138D14619E02AB9002D4AD04FF024
:100CFC0001080C33F2E719F8011BA1F1410BBBF110
:100D0C00190F98BF2031A2F1410B98BFC9B2BBF1AA
:100D1C00190F9CBF2032D2B28A42EAD1A9EB0A0148
:100D2C00614510F8012FDFD1002ADED11D46584B4A
:100D3C001D6094F87B30013384F87B30D5E90123B6
:100D4C000136F6B2002A35D01B786E2B31D03F2BF2
:100D5C0023D04FF00009C8464FF0070B042394F83A
:100D6C007710AA68B14212F808702BD8AFB1904432
:100D7C0098F801302A2B10D0212F1CBF032384F8A4
:100D8C0079300AE01D46B4E7B8F1000F01D1002D0F
:100D9C00CDD1022384F87930002594F8790000280D
:100DAC0069D168680AF006FA03B0BDE8F04FFFF7A6
:100DBC0073BD1346019AB24282D8032284F879207B
:100DCC001D46EAE7732F09D8712F0BD2212F1FD0A4
:100DDC00622F3CD0002F4BD1032246E0A7F17502C5
:100DEC00022A45D8752F29D0762F2AD0732F2BD0D5
:100DFC00722F47F6FF7A18BF4FF0FF3A0121484691
:100E0C000193FFF7D3FD5045019B01D984F879304C
:100E1C00AA68424452782A2A94F879201CBF08F117
:100E2C0001085FFA88F8002AB7D1212F1FBF0136BD
:100E3C0009F10109F6B25FFA89F990E74FF0FF0A60
:100E4C00DCE74FF6FF7AD9E74FF07F0AD6E794F844
:100E5C007B204A4454FA82F292F86520224452785C
:100E6C00222AD5D07B2AD3D0052284F87920CFE74B
:100E7C0084F879B0CCE7FFF79FFE95E7222000209D
:100E8C009E20002004040300DFC00200C8CD020035
:100E9C00483C0020872000202DE9F3415E4C5F4F39
:100EAC0006460D464FF0000866B90DF107012846BD
:100EBC0007F0BEFC78B1262800F0A980012384F845
:100ECC0079304BE0002D00F0A28016F8013B8DF834
:100EDC000730013DEDB23A789DF807303B700D2A92
:100EEC0001D10A2BE0D00D2B0CD0A3F10A025142F8
:100EFC00514122788846042AD6D8DFE802F0051D35
:100F0C00263C31000121F4E721B1FFF7A3FE4FF09D
:100F1C000108C9E7202B63D0222B07D102232370B1
:100F2C0094F87820642A5DD10623C8E77B2B01D185
:100F3C000323F4E70123F2E709B9202BF0D194F84D
:100F4C007730112B3FD10323B9E7222BF7D000299F
:100F5C00E6D0052384F879304FF001080423237080
:100F6C00B8F1000FA0D094F8790008B1FFF724FE77
:100F7C00FFF792FC98E77D2B94F87A0003D1FF28B9
:100F8C00DDD005239BE7602B13D8402B13D8392BCE
:100F9C008CBF002230229A1AD2B20F2A10D8FF2806
:100FAC000BD002EB0012FF238DF8072084F87A3067
:100FBC00B6E75722EFE73722EDE784F87A2073E79C
:100FCC00202BDED170E70133DBB284F87730234479
:100FDC0094F8782083F8652000232370002994D19D
:100FEC00884661E72378012B09D19DF80730A3F1DE
:100FFC00410119299CBF2033DBB28DF80730A318AF
:10100C009DF807105970013284F878204CE740465F
:10101C0002B0BDE8F08100BF222000209F200020FC
:10102C0049BA89B24840C0F303114140080380B269
:10103C004840C3B280EA4310704716F0C7BA7047F5
:10104C0070477047704770477047704770477047DC
:10105C007047704770477047704700207047704763
:10106C000020704782B002AB03E9060002B0704763
:10107C007047704700207047002070477047012070
:10108C007047012070477047704770477047704732
:10109C00704770472DE9F047204DDFF8A090DFF83E
:1010AC00A0A000245FFA84F8404619F055FBFF28F5
:1010BC0006460CD122461A49287802F0CDFA287837
:1010CC00013407F0BFFB142CECD1BDE8F087154BB5
:1010DC0059F82420144947B213EA270338BF534662
:1010EC00287802F0B9FA002FE9DA14B1B8F1030F3D
:1010FC0008D10E4B0E49287816F0010F18BF19466F
:10110C0002F0AAFA0A2CDAD10A4B0B49287816F00D
:10111C00010F18BF194602F09FFAD0E7411D0020BD
:10112C0059C20200E1C0020081C202001CC20200CE
:10113C0032C2020044C202004EC20200C8C1020008
:10114C005B0203008842F0B54FEA92031AD89BB2B7
:10115C009E00871904460D4604370434BC4205F141
:10116C0004053AD1C3EB8333314402EB8303013ED4
:10117C00304411FA83F3994220D011F8012B00F876
:10118C00012FF8E7541E20449BB22144A0EB8306A8
:10119C0004460D46043E043CB442A5F104050ED1B0
:1011AC006FF003045C43C3EB833302EB83032144F2
:1011BC009BB201342044CB1A994209D1F0BD2F794E
:1011CC002771EF78E770AF78A7706F786770E2E7F8
:1011DC0011F8012900F8012DEEE715F804CC04F8FC
:1011EC0004CC15F803CC04F803CC15F802CC04F8A5
:1011FC0002CC15F801CC04F801CCAEE702449042C5
:10120C0000D1704700F8011BF9E710B5013801391E
:10121C000AB9104606E010F8014F11F8013F9C4244
:10122C0001D0E01A10BD013A92B2F1E782B2074B3D
:10123C0042B11A80000C064B0ABF4FF6CE22188022
:10124C001A8070474BF6EF62F3E700BF841B002057
:10125C00861B0020094B1888020448BF80F06200EE
:10126C0042001A80064A1388190444BF83F4805341
:10127C0083F00B035900118058407047841B0020E9
:10128C00861B0020034B1870034B1970034B002274
:10129C001A707047A6200020A5200020A72000204F
:1012AC002DE9F04F234E337885B007468846002B46
:1012BC003DD0214D4FF6FB7398422C7803D9522127
:1012CC001E4800F017FF1E4B4FF0000B9A46327869
:1012DC0018785FFA8BF94A4511D9484402A9C0B273
:1012EC00019321F063FF082241460DEB0200FFF74A
:1012FC008CFF0BF1010B019B0028E8D14C462B789D
:10130C00A34207D1631C3278DBB29A422B7004BF24
:10131C0000232B709AF800301C44E4B2414620465E
:10132C0022F06EF818B93946204621F00DFF05B0B1
:10133C00BDE8F08FA5200020A720002076C3020076
:10134C00A6200020024B187800F07F00704700BFE9
:10135C00A8200020034B18780130C0B2187000F0A0
:10136C007F007047A82000201FB5030A8DF80E30AF
:10137C000323009303AB8DF80D0000F0BDF905B00D
:10138C005DF804FB1FB5030A8DF80F1004218DF8CE
:10139C000E30009103AB8DF80D0000F0ADF905B0E7
:1013AC005DF804FB2DE9F04389B00746BDF84050C9
:1013BC009DF84460BDF84C4088460DF1090011467B
:1013CC0008229946FFF7BEFE8DF81250012E4FEA07
:1013DC0015258DF811908DF813508DF8146017D0D9
:1013EC00032E1CD1082212990DF11500FFF7AAFE4D
:1013FC009DF850308DF81D3016230093BDF8542005
:10140C0002AB4146384600F077F909B0BDE8F083ED
:10141C008DF81540240A8DF816400F23EDE70120B6
:10142C00F3E71FB50C46194602238DF80D200093E7
:10143C000A4603AB0146204600F05EF904B010BD2D
:10144C0070B586B0044616460DF10D0008221D46F7
:10145C00FFF778FE0A2300932A4603AB342120467B
:10146C008DF8156000F048F906B070BD30B585B048
:10147C000024ADF80A20021D92B2012A1D46ADF8D7
:10148C000840ADF80610ADF8044003D94FF6FF72D2
:10149C00904207D1064A2B46127801A91FF0DAFFB9
:1014AC0005B030BD014601AA204620F099F8F7E7B7
:1014BC00881B00202DE9F74FFF2A98461DBF464B8D
:1014CC001B689C5C002418BF6408B8F1FF0F1EBF9A
:1014DC00414B1B6813F808700E46814614BF7F08F9
:1014EC0000271546FFF736FF4FEA19238DF8000049
:1014FC008DF803600621360A68468DF804608DF875
:10150C0001908DF802308DF8054019F0F9FEFF2896
:10151C00064604D11824204603B0BDE8F08F4FEAEC
:10152C00440B0BF1070A0AEB4701C9B219F09CFEF8
:10153C000028EFD10446A3451BD10BF106013A4616
:10154C0001F0FE01304619F056FF5FFA8AF44FF0B5
:10155C00000A5FFA8AF5AF4223D83346BDF8302033
:10156C0006214846FFF782FF0446304619F06CFD11
:10157C00D1E72146284619F039FFA11D0246C9B210
:10158C00304619F038FF611CC9B2284619F02EFFFD
:10159C00E11D0246C9B23046023419F02CFFE4B208
:1015AC00C9E76D00EDB22946404619F01FFF2146F0
:1015BC000246304619F01FFF691CC9B2404619F0AB
:1015CC0015FF611C0246C9B23046023419F013FFF4
:1015DC000AF1010AE4B2BCE72C1B00202DE9F04112
:1015EC0088B00F4602A9064608F042FC00287CD0C1
:1015FC00FFF7B0FE8DF8100019F0ACFA8DF8110061
:10160C0019F0A8FA000A8DF81200082239490DF1D8
:10161C001300FFF797FDBDF808308DF81C301B0A3E
:10162C008DF81D300F219DF80D308DF81B6004A82E
:10163C008DF81E3019F064FEFF28044657D04FF089
:10164C0000089DF80D305FFA88F2934208F101080A
:10165C001DD801220DF10E01204619F093FE4FF01A
:10166C0000089DF80E305FFA88F2934208F10108E9
:10167C0024D823463A4620210020FFF7F7FE0546E2
:10168C00204619F0E1FC284608B0BDE8F0810021A5
:10169C00304608F019FC0DF107018DF807000546DE
:1016AC000122204619F06EFE2D0A01220DF10701D0
:1016BC0020468DF8075019F065FEC2E7012130462F
:1016CC0008F002FC0DF107018DF807000546012218
:1016DC00204619F057FE2D0A01220DF10701204674
:1016EC008DF8075019F04EFEBBE7A325CBE7182564
:1016FC00C9E700BF05410020F8B51C460E46174649
:10170C000546FFF727FE9DF818102070204619F0AB
:10171C00F7FDFF2804460BD003463A4628463146CF
:10172C00FFF7A4FE0546204619F08EFC2846F8BDAE
:10173C001825FBE708B5FEF727FFBDE808400BF0BE
:10174C0061BD08B5FFF767F8BDE808400BF080BD38
:10175C007047FFF77AB8FFF77EB80020704738B5AE
:10176C0004460D46FFF795F829462046BDE838405B
:10177C0007F0E2BCFFF771B8FFF77DB840220321F8
:10178C0001200CF06DBA0122032110460CF068BA4E
:10179C000022032101200CF063BA02220321012054
:1017AC000CF05EBA0122002109200CF059BA01207C
:1017BC007047012070470120704700002DE9F84F59
:1017CC00184E80460D461446994606F1010A0DB98D
:1017DC00BDE8F88F102D4FF00D02494650462F46AC
:1017EC0028BF1027FFF7AEFC012333700D48F473AC
:1017FC000023B373013421F09DFE0B495FFA87FB84
:10180C00E4B2424612F8013B11F8010F434002F8D2
:10181C00013CA2EB0803DBB25B45F3D3ED1BADB28D
:10182C009046D4E7AD200020AC2000202DE9F04FED
:10183C00374D85B01746BDF83880019003930D22C3
:10184C000F9B02930E460146681CFFF77BFC492355
:10185C002B7028464FEA1823AB7385F80F8021F0C4
:10186C0069FE2B7883EA17232B706B784FF00209F3
:10187C007B406B704C46AA464FF0000B21E0C4F144
:10188C00100CA7EB0B031FFA8CFC9BB2634528BF13
:10189C0063463046A11B00EB010C5FFA8CF2A0EB07
:1018AC00060C1FFA8CFC9C451BD31C44E4B29B44D5
:1018BC00102C1E441FFA8BFB03D1284621F03AFE54
:1018CC000024BB45DBD314B1504621F033FEB9F1F3
:1018DC00010F4FF00004039E47460BD04FF0010957
:1018EC00CAE710F801CB1AF802E08CEA0E0C0AF8E1
:1018FC0002C0D0E7029806490422FFF723FC019BA3
:10190C0002982246042105B0BDE8F04FFFF756BF00
:10191C00AD200020F7B5099FBDF82040CDE9004768
:10192C0006461D46FFF782FF2CB1334601222146A5
:10193C002846FFF743FF002003B0F0BD2DE9F74325
:10194C00BDF828700F4C1E46054688469146034646
:10195C00394630460122FFF731FF33464A464146AD
:10196C002846CDE90074FFF761FF042221460B984D
:10197C00FFF74BFC002814BF7E20002003B0BDE80D
:10198C00F08300BFA92000202DE9F3410A4F0C463B
:10199C00991815461E468046214438460422FFF706
:1019AC00D1FBCDE9006763192A4621464046FFF773
:1019BC00C5FF02B0BDE8F081BD20002000207047BB
:1019CC00002070477047704707B50020FFF748F8B4
:1019DC0002AA003018BF012002F8010D01237F215B
:1019EC00232001F093FC03B05DF804FB902810D089
:1019FC00912810D09B2810D0942810D0AD2810D14D
:101A0C000423084A084902EBC30304205A680AF06D
:101A1C0053BB0023F5E70123F3E70223F1E703238C
:101A2C00EFE7704728D9020050D9020038B529F0E9
:101A3C009FFDFEF7C5FE002408F07EFCE5B2A8422F
:101A4C0004F1010400D838BD284608F059FE0546BB
:101A5C0008F08DFF2846FEF7B2FE2846FEF7B2FED0
:101A6C00EAE70000014819F0D9B800BF843C002017
:101A7C00F8B50D4616461349134A0446002808BF0C
:101A8C000A461F461149034604200AF0F9FA3A4661
:101A9C000F4904200AF0F4FA2A460E490420334672
:101AAC000AF0EEFA22460C4904200AF0E9FA14B9BD
:101ABC000A4B1C70F8BD4FF4A0510848BDE8F84023
:101ACC0019F0B8B865D802000ADA020072D8020020
:101ADC0098D80200AED80200D2D802007C3C00207C
:101AEC0010B52449044604200AF0E6FA08F0F4F88C
:101AFC00FFF77CFF3CB1012C05D0022C03D0032C4A
:101B0C0001D0042C07D11C4B1C4903EBC40304204B
:101B1C005A680AF0D1FA902C0CD12046FEF7ACFD95
:101B2C00174B184800221A704EF66021BDE8104081
:101B3C0019F080B8912C1CD108F0CEF8044668B985
:101B4C00114904200AF09CFAFFF770FF0C4B1C7033
:101B5C00FEF760FD4FF4A0510C48E7E708F0BCF825
:101B6C00032806D10A4904200AF08AFA4FF470219E
:101B7C00F2E710BDC0D7020000D9020050D9020014
:101B8C00C12000208C3C0020D8D702007C3C0020D7
:101B9C0008D8020007B50A4B00221A702321012332
:101BAC007F220DF1070001F077FB9DF807301BB188
:101BBC00044904200AF080FA03B05DF804FB00BF6E
:101BCC008C3C002053D7020008B505F0DFFBE0B9D0
:101BDC0005F0E2FBC8B90D4B1A78072A0CD8013274
:101BEC001A7006F013FBFEF71EFE4FF42041084856
:101BFC00BDE8084019F01EB8042006490AF040FA66
:101C0C009320BDE80840FEF737BD08BDC120002079
:101C1C007C3C002033D8020007B501237F2223210E
:101C2C000DF1070001F038FB9DF807301BB1084996
:101C3C0004200AF041FA074B00221A7008F04CF805
:101C4C0018B9FEF7E7FCFFF7BFFF03B05DF804FB24
:101C5C0053D70200843C002010B5154C15490023C5
:101C6C00042023700AF028FA08F036F8FFF7BEFEBD
:101C7C0008F032F8012819D007D3032809D00E49EF
:101C8C000420BDE810400AF0FBB9BDE81040FFF796
:101C9C009BBF0A4904200AF0F3F920464FF4702147
:101CAC0018F0C8FFBDE81040FEF7EBBD10BD00BF3B
:101CBC007C3C00207DD70200B0D7020094D70200F4
:101CCC0008B508F009F8FFF791FE0A4B00221A70CC
:101CDC0008F002F8022805D1FEF79CFCBDE808408C
:101CEC001BF064BF07F0F8FF0328F5D0BDE80840EF
:101CFC00FFF76ABFC1200020FFF798BE10B5104C4B
:101D0C001049A161032321660F494FF48062C4E995
:101D1C0004330E4BE361C4E9191200230C49A3628E
:101D2C00E01D6362E3622367E366636722622AF065
:101D3C00D1F8084920462AF0CDF82023A37110BD14
:101D4C00943C00202FDA0200C2200020C224002084
:101D5C0038DA02003CDA02002DE9F84F1F4B164628
:101D6C001A7881468A4698460AB9FFF7C7FF1827A2
:101D7C0007FB09873D6FD7F86CB05D452BD9BC6E5E
:101D8C00796E641BB44228BF34462944504622461F
:101D9C002AF08DF8BB6E2544A244361BAB4208BF1B
:101DAC000025ABEB050B5E4528BF5E4656B11823EC
:101DBC0003FB09833246596E504629442AF077F8C2
:101DCC003444354424B1182303FB0988C8F87050F7
:101DDC002046BDE8F88F0024E3E700BF943C0020C8
:101DEC0010B50B46EFF311844FF0200181F31188ED
:101DFC001946FFF7B1FF84F3118810BD2DE9F84F98
:101E0C00144D9B462B788146884692460BB9FFF7BA
:101E1C0075FFEFF3118C4FF0200181F311886F697E
:101E2C000020182303FB0054666E2EB1013087424C
:101E3C00F8DC4FF0FF3009E08742FADDC4E918986E
:101E4C00C4F868A02667E666C4F874B08CF31188F1
:101E5C00BDE8F88F943C0020FFF750BF012270B50D
:101E6C001146042003F046FF1A4B1B4D1A681B4801
:101E7C0042F001021A60DA684FF0604442F080725E
:101E8C00DA60174BC4F8B03F00260223C4F8006E8A
:101E9C00C4F8806EC5F8F03003F028FE00F5D520AC
:101EAC00104B114A00F2FC40B0FBF3F00F4B013821
:101EBC002861C4F8406E1A600D4BC4F8803E4FF494
:101ECC008073C5F80433D4F8003E43F48073C4F82F
:101EDC00003E70BDF0ED00E0000004E006000E00D6
:101EEC0055CEACC5F8590D00FF030040001000E0C2
:101EFC000D00010010B50121104803F0A9FC104B96
:101F0C0001241C60002004F0A3FB234604220221C0
:101F1C00052004F0F5FB204629F02CFCFFF79EFF72
:101F2C0029F029FCFFF798FF234640220549064873
:101F3C00FFF764FF054B1860C00F10BD00350A0099
:101F4C0010881442C228002043DA02008C1B0020A7
:101F5C0008B54FF06043D3F8802ED10711D5114945
:101F6C000A6822F440620A60D3F8802E22F0010243
:101F7C00C3F8802ED3F8802E1202FBD4642012F00A
:101F8C009AFD00221146042003F0B4FE064A0023F9
:101F9C00C2F8F030C2F80433A2F54432A2F5047250
:101FAC00136008BD001000E0000004E0024B18684C
:101FBC00003018BF01207047F0ED00E0054A417079
:101FCC00D12303701378C370090A8170591C1170E6
:101FDC0004207047022900202DE9F74F354E336855
:101FEC001C5C032C074663D912F00EFEDFF8C88088
:101FFC0001900534E4B24FF6FF7A0025C146D8F8BB
:10200C0000204AB1AC4207D912F0FEFD019BC01A68
:10201C0080B2B0F5FA7F05D9601B18BF012003B060
:10202C00BDE8F08F002D3DD0012D1DD13268D55D5E
:10203C004FF0020B4FF06042D2F8801ECB0711D547
:10204C001146D9F80C0040F08070C9F80C00D1F89A
:10205C00000E40F48070C1F8000E086A0028F0D021
:10206C0082F820505D46CAE7E21E05F1010B95424D
:10207C005FFA8BFB02D15FFA8AF5DBE7A21E954271
:10208C0002D1CAF30725D5E7621E95420ED0A91ED0
:10209C00C9B2384619F0AAF951460546FEF7C0FFF9
:1020AC008246C7E75B254FF0010BC3E75D25C1E70F
:1020BC000120B4E72C1B0020F0ED00E010B50B4B19
:1020CC0090B0402269461868FFF78AFE58B1C1B239
:1020DC00684619F015F904460146122028F09CFDBB
:1020EC00204618F0B1FF10B010BD00BF8C1B0020B3
:1020FC0042DE704738B504460D4615F03BFB00F048
:10210C008FFD03F0D8FF2946204628F051FD2B46C1
:10211C0022460549012006F09BFB29462046BDE8D6
:10212C003840FFF7E5BF00BF53DA02006D4B2DE9D5
:10213C00F0416D4C5A68A2655A6AE2656B4AD2F856
:10214C0000122166D2F8042262669A6AA266DA6AE2
:10215C00E2661A6B22675A6B6267DB6BA26BA36732
:10216C00D4E90F5312F0040F18BF1D4612F0F0FC07
:10217C00002285420346606522655CD35C4A954229
:10218C0059D8AA696264E969A164B4F85810C1F31A
:10219C000801062953D157498A4250D356498A42DD
:1021AC004DD211884DF64262914248D16268C4F812
:1021BC009420A268C4F8982040F201704F4A50490C
:1021CC00934238BF13460A468B423BD3D31AE3647F
:1021DC000023C4E91F33C4E92133C4E92333484E37
:1021EC00444FDFF814C1AE4232D8D4E91FC7D4E94A
:1021FC002165D4E923124FF0000E013BDBB2FF2B1B
:10220C0041D1BEF1000F05D0C4E91FC7C4E9216557
:10221C00C4E92312B4F85830C3F30803DA1E0F2AAA
:10222C0055D8DFE802F03A5B474A545454545451A1
:10223C0054545454543E0022C4E911221D464FF408
:10224C002060BBE71E68B6F1CD3FBFD10433BBE7BE
:10225C0056F8042DBA42C6D36245C4D2D107C2D5B2
:10226C00002104EB010EDEF87CE09645BBD0043176
:10227C001829F6D10BB9052301E0013BDBB204EBC5
:10228C008301CA67AFE7E0464FF0010EBC46374604
:10229C002E460D4611464246AFE740F60120BDE8FA
:1022AC00F081184BDB6913F0020F40F2025318BF98
:1022BC001846F4E740F60320F1E740F60423B0F5A6
:1022CC00206F08BF1846EAE740F60520E7E7013B18
:1022DC0040F607223D2B98BF1046E0E740F602205F
:1022EC00DDE700BF00ED00E00000002000E100E0B1
:1022FC00801A00201402000000BF02009C00002085
:10230C00A01A00200020054007B501F051FC012166
:10231C000D4803F09DFA01210C4803F099FA0322B1
:10232C00104601230F2104F0EBF909490F2001F0AD
:10233C004DFC01230F22CDE900331146032004F09C
:10234C0093F903B05DF804FB4041050000350A0029
:10235C00B12300000F280ABF014B002018787047EA
:10236C00032900200F2804BF014B1970704700BFD0
:10237C00032900200F2805D1034A1378B3FA83F3FD
:10238C005B091370704700BF032900200F2809BF99
:10239C00034B00201868B0FA80F008BF4009704762
:1023AC00BC15144210B50446FFF7F0FF002201469D
:1023BC0001E0002219462046FFF7E8FF8842034659
:1023CC00F7D10132052AF2D12046FFF7C3FF88422C
:1023DC00204609D0FFF7C6FF2046FFF7BBFF01469A
:1023EC00204607F0C3FB10BDFFF7C4FFFFF7B2FF99
:1023FC000146204607F0BAFB2046FFF7BBFFEBE790
:10240C0010B504F0BBFB044604F0B2FB0022012122
:10241C0001FA02F3234014D01B4B33F812301B4A41
:10242C00062B13D040F207218B420DD118491948C5
:10243C000C68844208D14CF23C334B800B881380DF
:10244C0012E00132112AE3D1104AF8E7104B5888F8
:10245C004FF20F01884214D11988B1F5406F10D298
:10246C0011804CF23C325A80084B1A8840F20173AE
:10247C009A4201BF084A094BD2E90001C3E90001A5
:10248C0010BD4FF4C061EBE766DA02000C290020A6
:10249C000000002007020FF0940000200429002007
:1024AC00014B1888000A70470C290020014B188832
:1024BC00704700BF0C2900202DE9F04F4D4CA36B49
:1024CC00D4F850B0D4F840A05A074FBF0027D4F826
:1024DC004CB0D4F85480D4F83CA05ABF464FDFF827
:1024EC004091DFF84091454A48BFB84613F0080FB9
:1024FC00434B18BF1A46B7EB08061CBF7308642180
:10250C0087B01FBF01FB0B33B3FBF6F39BB20593F4
:10251C003C49CDF800804B46CDE9017A08BF0596C1
:10252C00054601F099F8B3B2CDE900931FFA8BF28E
:10253C00059B3549284601F08FF8A36B5B070AD43D
:10254C009C3E5E4507D1626D304B9A4203D23049B6
:10255C00284601F081F8BA4501D8C24504D24A4652
:10256C002C49284601F078F8284606F06BF9236EC2
:10257C000BB9636EBBB32849DFF8AC80DFF8AC90C5
:10258C00284601F054F800260127226E07FA06F3BC
:10259C00134207D058F8262013781BB14946284619
:1025AC0001F045F80136202EEFD1DFF87C80DFF802
:1025BC007C9000260127626E07FA06F3134209D0BD
:1025CC0008EB8603D3F8802013781BB149462846C4
:1025DC0001F02DF801360E2EEDD1284607B0BDE8DE
:1025EC00F04F01F033B80D49284607B0BDE8F04F65
:1025FC0001F032B800000020A01A002076DD0200A5
:10260C006FDD02007EDD0200ACDD02009C000020CC
:10261C00E5DD020011DE02002FDE02005EDE0200AC
:10262C006ADD020051F3020074DE0200A501030012
:10263C002DE9F8430446FFF739FF40F60123984291
:10264C0039D010D840F2025398421DD040F2017399
:10265C00984224D040F20153984213D16549204648
:10266C0000F0FAFF22E040F6032398426CD03DD3F1
:10267C0040F60423984200F09C8040F605239842D3
:10268C0000F0B580BDE8F8835B49204600F0E4FF1C
:10269C005A4B5B495A6C204600F0DEFF06E0574A65
:1026AC005849D2E92523204600F0D6FF2046BDE844
:1026BC00F84306F0C7B8514D5349204600F0CCFF03
:1026CC0095F86C309F0703D55049204600F0C4FFA5
:1026DC0095F86F305E0603D54D49204600F0BCFFDF
:1026EC0095F96F30002BE1DA4A49B8E7434D4A4976
:1026FC00204600F0B1FF95F86830980704D06A6C5A
:10270C003F49204600F0A8FF95F96830002B04DA09
:10271C006A6F4249204600F09FFFDFF80C81DFF81A
:10272C00189100260127AA6E07FA06F3134207D068
:10273C0058F8262013781BB14946204600F08CFF30
:10274C000136082EEFD1B1E72C4D3549204600F06B
:10275C0083FF2B496A6C204600F07EFF95F86930A8
:10276C00590703D52F49204600F076FF95F96930BB
:10277C00002B04DA6A6F2949204600F06DFF2A4FBE
:10278C00DFF8B4800826AB6EF340DA0707D557F8AC
:10279C00262013781BB14146204600F05DFF013620
:1027AC00102EF0D195F86830002B7FF47FAF1F49C5
:1027BC0055E7124D1E491C4FDFF87C80204600F077
:1027CC004BFF6A6C0E49204600F046FF1026AB6E9C
:1027DC00F340DB0707D557F8262013781BB1414689
:1027EC00204600F039FF01361A2EF0D15EE7114970
:1027FC004BE700BFF9DA020036DB020000000020D4
:10280C0066DB02007FDB020099DB0200B1DB020019
:10281C00EBDB02001EDC02005ADC02007FDC020053
:10282C00A3DC0200BADC020088DA020000DD020040
:10283C0030DD020049DD02009BDC02002DE9F84F7F
:10284C00164C174FDFF86080DFF860A006460025B5
:10285C0023785FFA85FB0BB9BDE8F88F57F8043B7A
:10286C0010492246304600F0E2FE227804F10109BC
:10287C0082B9627882B10BF0030103290CBF414687
:10288C005146304600F0D3FE304605F0DBFF0135F3
:10289C004C46DDE74C46E8E74146F2E72CDF020008
:1028AC0004000020F0DA0200DFC00200F2F50200A2
:1028BC0000F00CB800F00AB800F008B800F006B848
:1028CC0000F004B800F002B800F000B872B61EF0C8
:1028DC00080F09D01EF0040F0DD0DFF850E0AEE861
:1028EC00FF1F6FF002000CE0DFF840E0AEE8FF1FC6
:1028FC006FF00E0005E0DFF834E0AEE8FF1F6FF07C
:10290C0006006946EFF309828EE807008646084800
:10291C00084C854501D3A54501D384F30888FFF7FE
:10292C0005FC84F3088812F0EFF800000400002086
:10293C0080110020A01A0020FFF7C6BF10B501219E
:10294C000A4802F085FF0121094802F081FF0023AB
:10295C0004220E21032003F0D3FE002304220A21BB
:10296C000220BDE8104003F0CBBE00BF4041050083
:10297C0000350A00064B03EBC00213F830305168E7
:10298C0001228A4030215943024B5A50704700BFF4
:10299C0094E502000CA00046064B03EBC00213F8B2
:1029AC003030516801228A4030215943024B5A5031
:1029BC00704700BF94E502000CA00044074A12F8CF
:1029CC00301002EBC002536801229A4030234B4373
:1029DC0003F1804303F520439A61704794E50200AC
:1029EC0010B10020FFF7C6BFFFF7D6BF37B57F2A5F
:1029FC0014BF154600254BF234629142044619D19E
:102A0C007F2241F2020168460823FFF7EFFF0822FC
:102A1C0024496846FEF7F9FB30B908237F2241F2BE
:102A2C00F0116846FFF7E2FF082269462046FEF7E0
:102A3C0089FB09E041F2F01291421AD11A490A6C51
:102A4C00496C01381D1F0BB903B030BD013B9D42D1
:102A5C0000F8012F4FEA1222F5D1033400229A42DA
:102A6C00F2D00132042A04F8011F4FEA1121F6D1E9
:102A7C00EAE701F47042B2F5805F07D1C1F30B04B1
:102A8C0004F17E649AB203FB0541D0E701F4604285
:102A9C00B2F5005FD8D1C1F30B0404F17E6404F5E8
:102AAC008044EFE736E60200B081E00F70B50546D2
:102ABC0016461C46DBB14BF23463994210D1082CFC
:102ACC0028BF08247F2241F202012346FFF78EFF24
:102ADC00A2B207492846FEF798FB40B941F2F01123
:102AEC00234632462846BDE87040FFF77FBF70BDD5
:102AFC0036E602002DE9F8431646C20704460F4697
:102B0C0003D5DD212748FFF7F5FAF30703D5DE21BE
:102B1C002448FFF7EFFA04F47043B3F5805F21D13A
:102B2C00C4F30B0404F17E64731E1F4A23449342C6
:102B3C00254603D9E3211B48FFF7DCFADFF8649044
:102B4C0005EB0608454522D156B372083946204696
:102B5C0011F065FF20B340F20F111248BDE8F843A5
:102B6C00FFF7C8BA04F46043B3F5005F07D1C4F3B0
:102B7C000B0404F17E6404F580442546DEE7EA216B
:102B8C000848FFF7B7FA6FF00F050024D6E715F8E1
:102B9C00013BFF2BD6D0F4214846FFF7ABFAD1E727
:102BAC00BDE8F883BCE50200FF07E00FFFF780BE2D
:102BBC001FB501211648174C02F04AFE012211469E
:102BCC00104603F097F80421072003F0C1FF124AC6
:102BDC001068516801AB03C39068186001238DF82D
:102BEC0004300D238DF80C3001A9032320468DF8F9
:102BFC000D3004F0ACF9094B04220221C3F88021FA
:102C0C0061621A60A36A0B43A36204B010BD00BFDB
:102C1C0030253E00002005403EE6020000E100E0C9
:102C2C00014804F088B900BF00200540A52803D155
:102C3C000021024804F06BB9704700BF002005402A
:102C4C00024B186800F00100704700BF00200540DF
:102C5C00024A9368002BFCD1704700BF002005404E
:102C6C0000207047002070477047000013B572B603
:102C7C0003F021FA6E4B6F495B698B6000230B7676
:102C8C00E0204B768B764023C87608774877887798
:102C9C00CB77694B8022602481F8202081F82100B9
:102CAC0081F8220081F8232083F8002383F8014364
:102CBC00202483F8024383F8034383F8042383F826
:102CCC00052383F8062383F8072383F8082383F866
:102CDC00092383F80A2383F80B2383F80C2383F846
:102CEC000D2383F80E2383F80F2383F8102383F826
:102CFC00112383F8122383F8132383F8142383F806
:102D0C00152383F8162383F8172383F8182383F8E5
:102D1C00192383F81A2383F81B2383F81C2383F8C5
:102D2C001D2383F81E2383F81F2383F8202383F8A5
:102D3C00212383F8222383F8234383F8242383F865
:102D4C00252383F8262383F8272383F8282383F865
:102D5C00292383F82A2383F82B2383F82C2383F845
:102D6C002D2383F82E03CB6823F4E0631B041B0C88
:102D7C0043F0BF6343F40133CB604B6943F40073FE
:102D8C004B614B6943F010034B614FF4E0234B62F2
:102D9C0004F04CFAFFF734FBEFF30883274A043BAB
:102DAC004FF0CD31934240D2254A264892B20021B1
:102DBC00FEF724FA62B6244B01225A641A6842F4D4
:102DCC0080721A60684603F059FF9DF80130012BA0
:102DDC0003D89DF80030022B09D91C4B4FF4187204
:102DEC001A601B4A5A601B4A5A661B4ADA661B4A0F
:102DFC00136843F4F8431360194B01241C6104F06D
:102E0C0069F901F0E7FA002368460093ADF8043045
:102E1C008DF8034003F066FB00F028F911F006FF73
:102E2C0010480BF0A9FF02B010BD1960043BB9E7C4
:102E3C000000000000ED00E000E100E04011002087
:102E4C007C100000A000002000000E408C420E40C0
:102E5C009A6F05001801000400843208A4310E405A
:102E6C0000300E405C0B030040F2016011F04CBED0
:102E7C0004F02EB904F02DB9FEF7A4BD08B500215D
:102E8C000B20FEF79DFDBDE80840FEF79CBD03201E
:102E9C0000F076BA08B5FFF703FB044B0B289ABF7A
:102EAC0000B203EB8000184608BD00BF98E7020093
:102EBC0008B5FFF7FBFA044BC0F30F22C0B253F86E
:102ECC00223003EB800008BD5CE7020010B5FFF771
:102EDC00E7FA0446FFF7EAFAC0B228B9012C24D16C
:102EEC0064F07F04E4B216E0072CF9D801A353F880
:102EFC0024F000BF232F0000ED2E0000212F000036
:102F0C00272F0000272F00002B2F00002F2F000051
:102F1C00332F00000924204610BD0224FBE70324B4
:102F2C00F9E70B24F7E70624F5E70446F3E700BFBF
:102F3C0007282DE9F84F04460F462DD0082808BF66
:102F4C00022421460120FDF7A5FCFFF779FE651E42
:102F5C00D5F1000848EB050800B3012C1ED1A520C3
:102F6C00FFF764FE2646EFF31089012383F31088E4
:102F7C00EFF3118A4FF0000B8BF31188354D40465F
:102F8C0005F0E8FE631EC5F800B0042B59D8DFE845
:102F9C0003F00E4D4D5155000324D2E7FFF750FEC0
:102FAC0018B1FFF755FE0026DDE70646DBE72A4A97
:102FBC00136923F00403136130BF284AD2F8283474
:102FCC00D2F81C2413409BB2254A2B60D2F8001176
:102FDC00490502D51168480506D4D2F800114903F9
:102FEC0005D51268520302D543F480332B601C4B79
:102FFC00D3F80021002A06DA1B68002BBEBF2B6811
:10300C0043F400332B601EB10121164803F07FFFFF
:10301C00404605F0B5FECFB18AF3118889F31088CC
:10302C0021460020BDE8F84FFDF734BC012003F029
:10303C0073F9C2E7012003F0A3F9BEE703F0E6F948
:10304C00BBE788210848FFF755F8B6E787F31088E7
:10305C00E6E700BF1429002000ED00E000A00040CE
:10306C0000E100E000200540C8E70200044AD2F865
:10307C001C341B0C1B04C2F82434024A1360704726
:10308C0000A00040102900200021FFF751BFFFF7DE
:10309C00FBBF00002DE9F04F89B00BF05DFE074639
:1030AC00002840F0DD806F4E6F4D3168286813F0BA
:1030BC003BF90446002827D033689A69D3E900010C
:1030CC001268904733689B6904A89B6898473368DB
:1030DC009B690220DB6898473C4632680598536828
:1030EC00B3FBF0F3E7B2BB42916904F1010442D89F
:1030FC00CB680020984733689B695B6898473168B8
:10310C00286813F011F90446DFF888910026002C8A
:10311C0053D1564BF35C4FEA8608002B31D1544BFC
:10312C00F35C0193534BA24603EB080B019B2868FD
:10313C005FFA8AF7BB4253D84F4BF35C002B3CD061
:10314C004C4B019F9844FBB27E2B286835D8D8F89D
:10315C00003007EB030A03AA02AB514613F01EFB27
:10316C0048452AD05146286813F05EFB01370446C7
:10317C000028E8D021E012680B6907FB0020984773
:10318C00ABE73C4B286853F8267003AA02AB3946D0
:10319C0013F004FB484507D078B9039B012B0CD0E6
:1031AC003946286813F040FB344B286853F8083034
:1031BC0039461A6813F01CFA04460136252EA6D19E
:1031CC00B4FA84F32E4A5B0913702E4B9C4241D007
:1031DC002DD8002C32D0013B9C423FD0C5242DE091
:1031EC00DBF800301F4403AA02AB394613F0D6FAC1
:1031FC0048450AD010B10AF1010A97E7039B8BB935
:10320C00214B029AF35C9A42F5D01F4B1B4A9B5DF3
:10321C0052F808202868394613F05CF90028EAD0E7
:10322C00044689E73946286813F0FEFAEDE7174B98
:10323C009C4211D004339C42D0D1C1242B681B7CFE
:10324C0023B14FF489711248FEF754FF204609B0A0
:10325C00BDE8F08FC324F1E7C424EFE7C224EDE707
:10326C00C624F3E7E41B0020E01B0020F0C602009C
:10327C0034C602003CC7020015C702005CC602003F
:10328C001829002002E000F0D0C7020004E000F092
:10329C0044E802000BE000F0242970B506460C4609
:1032AC0015461AD8144A127822B3144A1068144AD4
:1032BC0052F82110134A125D3AB1324613F0E6F976
:1032CC00C0B1BDE87040FDF7BABE7F2D08BF002528
:1032DC003246294413F048F9F2E7FF2903D9BDE837
:1032EC007040FFF7E3BB40F245110748BDE8704062
:1032FC00FEF700BF70BD00BF18290020E01B0020A6
:10330C003CC70200F0C6020044E802002428F8B5CD
:10331C0004460D46164619D81449097829B31449A0
:10332C00144F0868144951F824103C5D3CB11268E4
:10333C0013F05EF9C8B1BDE8F840FDF780BE7F2DF3
:10334C0008BF0025294413F0C5F8F3E7FF2805D979
:10335C001A463146BDE8F840FFF7CCBB4FF4BC71C0
:10336C000648BDE8F840FEF7C5BEF8BD1829002098
:10337C00E01B0020F0C602003CC7020044E802003B
:10338C0008B5084B1B7863B1074B53F82010074B5B
:10339C000022186813F0BAF918B1BDE80840FDF71F
:1033AC004EBE08BD182900203CC70200E01B0020BF
:1033BC0070B5164685180AB9304470BD01F00F037C
:1033CC000A2B34BF302437242344013A090905F869
:1033DC00013DD2B2EFE70000F0B5F9B100281CDADC
:1033EC002D23B0F1004F137000D04042012115E0A5
:1033FC00801B8642ECB205F10105F9D904B927B15D
:10340C004D1C303454540127E9B20133092B09D136
:10341C00303050540131C8B2F0BD00210023DFF828
:10342C000CC01F465CF823600025E2E7BCE80200F4
:10343C002DE9F04F95B04FF0000B02AC81468A4657
:10344C0017461D465E46A0463B7863B902ABE41AAC
:10345C00E4B2224619465046C847002840F09380F3
:10346C003444E0B290E0252B13D0BBF1000F14D103
:10347C002370013412AB9C426DD3A4EB0804E4B26C
:10348C00224641465046C84700287CD12644F6B215
:10349C0060E0BBF1000F00D101373B78632B00F0EB
:1034AC0092801BD8392B09D8302B80F09E80002BB2
:1034BC00CCD0252B51D04FF0000BDBE7582B00F074
:1034CC008B80622BF7D12B6801936B6800934FF0C4
:1034DC00000B009B9B4543D10835ECE7702B1ED0AD
:1034EC0017D8642B01D06C2BE5D16C2B05F1040B98
:1034FC0028686CD17B78752B14BF0121002101D079
:10350C00642B00D101372246FFF766FF04445D4669
:10351C00D1E7752BE9D0782B5ED0732BCBD1A4EBF4
:10352C000804E4B2224602A9504605F1040B2D68AA
:10353C00C84740BB2644F6B2C4B201302B5D002B09
:10354C00FAD1224629465046C847E0B926445D4682
:10355C00F6B283464446013776E723700134AAE776
:10356C00019B204613F80B100222FFF721FF12AB30
:10357C00984204460ED3A0EB0804E4B2224641461E
:10358C005046C84718B1002015B0BDE8F08F26444E
:10359C00F6B24446009B013B5B4582BF202323705F
:1035AC00013412AB9C420BD3A4EB0804E4B22246C8
:1035BC0041465046C8470028E5D12644F6B2444659
:1035CC000BF1010B85E72B6823700435C6E7752BCF
:1035DC000CBF0021012196E7204602222978FFF733
:1035EC00E7FE05F1040B044691E77A7802F0DF025E
:1035FC00582A19D1322B07F1010B09D129882F1D1B
:10360C0004222046FFF7D4FE3D4604465F4652E7AF
:10361C00342B09D12F1D2D680422290C2046FFF7CD
:10362C00C7FE0422A9B2EDE74FF0010B22E70EB45E
:10363C0003B503AA52F8041B019205F02DFCC0B28D
:10364C0002B05DF804EB03B0704700000149FFF7CE
:10365C00EEBF00BFDFC002000EB433B505AA0546AD
:10366C0052F8041B019205F017FC04462846FFF79C
:10367C00EDFFE0B202B0BDE8304003B0704708B5D2
:10368C0005F00AFCC0B208BD2DE9F04F9B46584B23
:10369C0085B01B78109F9DF844A0DDF8508006463D
:1036AC0089461546002B00F09280072A00F2918083
:1036BC000E9B002B00F08D800F9B002B00F089805F
:1036CC00129BB3F5006F00F38480012801D1002F09
:1036DC007FD0484B03EB05131B7B002B7BD0464C58
:1036EC0010220021684628F0EDFB04EB4514102253
:1036FC00B9F1000F5CD14946204628F0E3FBA378D2
:10370C0043F01003A370E37843F03003E370BAF195
:10371C00000F03D1DBB243F00303E3703649129B75
:10372C00CDF800B06A01013B885A01EB020C63F33F
:10373C000E1088520E9BCCF808300F9BCCF804303E
:10374C009DF84C109CF80330012E61F383038CF828
:10375C00033042D11323CCF80C309CE80F000CF151
:10376C00100E8EE80F00DCF81C20CCF814706FF0F3
:10377C00030161F39F02B9F1010FCCF81C2004D1B5
:10378C000F9BCCF81830CCF804701A492A018B180E
:10379C0041F802800027159A5A6028469F605E7394
:1037AC002246694603F038F8384605B0BDE8F08F7C
:1037BC000021204628F086FB1023A3700323E3701E
:1037CC00BAF1000FAAD1DBB243F03003A5E70B48E6
:1037DC00EBE70B48E9E70B48E7E7B8F1000FD4D16A
:1037EC009CF8023068F304138CF80230CDE700BF6C
:1037FC009C2A00201C2900209C290020028000F01B
:10380C00018000F0078000F038B5104B1B7805469E
:10381C00BBB1C0B102F057FC0D49002301EB031200
:10382C00147B3CB92B6001231373146002F051FC20
:10383C00204638BD0133082BF0D102F04AFC054874
:10384C00F7E70548F5E70548F3E700BF9C2A002099
:10385C001C290020048000F0028000F0018000F0A0
:10386C0038B502F030FC0B4A05460023D1180C7B0E
:10387C005CB91033802BF9D102F084FF064B28463B
:10388C001C7002F026FC204638BD284602F021FCB4
:10389C000248F9E71C2900209C2A0020058000F032
:1038AC000D4B1B7810B5044693B1072812D802F0C3
:1038BC000AFC0A4B03EB04131A7B2AB100241C7379
:1038CC0002F007FC204610BD02F003FC0448FAE7A6
:1038DC000448F8E70448F6E79C2A00201C2900203D
:1038EC00068000F0028000F0018000F013B5164B4A
:1038FC001868019000238DF8043002F0E4FB134BA0
:10390C001C7824B102F0E5FB114802B010BD012275
:10391C001A7002F0DEFB0F4B1C731C7783F82C40E3
:10392C0083F83C4083F84C4083F85C4083F86C404F
:10393C0083F87C4004230DEB03008DF8073002F074
:10394C0041FF2046E1E700BFE0E802009C2A00208E
:10395C00038000F01C29002010B588B00E9C079441
:10396C000D9C06949DF8304005940B9C04949DF896
:10397C00284003940024CDE9013400920B46024602
:10398C0021462046FFF780FE08B010BD10B588B068
:10399C000E9C07940D9C06949DF8304005940B9C4E
:1039AC0004949DF8284003940024CDE9013400923E
:1039BC000B46024601212046FFF766FE08B010BDFB
:1039CC0008B50A4B1B785BB107280BD8084B03EBE7
:1039DC0000131B7B43B1002102F0EAFE002008BD5E
:1039EC000448FCE70448FAE70448F8E79C2A00205E
:1039FC001C290020028000F0018000F0078000F0FC
:103A0C0008B50A4B1B785BB107280BD8084B03EBA6
:103A1C0000131B7B43B1012102F0CAFE002008BD3C
:103A2C000448FCE70448FAE70448F8E79C2A00201D
:103A3C001C290020028000F0018000F0078000F0BB
:103A4C0008B50A4B1B7853B107280AD8084B03EB6F
:103A5C0000131B7B3BB102F031FF002008BD054871
:103A6C00FCE70548FAE70548F8E700BF9C2A002068
:103A7C001C290020028000F0018000F0078000F07B
:103A8C000D4B1B7893B1072812D889B10B4B03EB64
:103A9C0000131B7B73B10A4B1A6A012303FA00F063
:103AAC0010401ABF00200B70087070470548704713
:103ABC0005487047054870479C2A00201C290020A7
:103ACC0000200E40028000F0018000F0078000F022
:103ADC000B4B1B7810B50C4663B107280CD859B1A9
:103AEC00084B03EB00131B7B43B102F0FDFE20607F
:103AFC00002010BD0448FCE70448FAE70448F8E746
:103B0C009C2A00201C290020028000F0018000F07B
:103B1C00078000F02DE9F843174E326EF36E12EA6F
:103B2C00030800D5FEE7154CDFF85490012700255B
:103B3C0018EA070F16D02368B7669BB1A1686268B4
:103B4C000131A16028469847637B012B0AD148B903
:103B5C0009EB4513197B1A7F60F3410160F34102B5
:103B6C0019731A770135082D4FEA470704F1100431
:103B7C00DED1BDE8F88300BF00200E401C290020D8
:103B8C009C29002070B5094E0446012504B970BD6E
:103B9C0094FAA4F0B0FA80F005FA00F324EA0304D6
:103BAC0056F82030002BF1D09847EFE7A02A0020E0
:103BBC00054B4FF48022C3F880211A604FF48062C9
:103BCC00C3F880211A60704700E100E038B5044664
:103BDC000D4602F078FA034B43F82450BDE8384008
:103BEC0002F077BAA02A0020074BD3F82804D3F8A8
:103BFC001C24104020F42A5020F02A004004400CD1
:103C0C00C3F82404FFF7BEBF00A00040074BD3F855
:103C1C002804D3F81C24104020F4AA4020F05500AE
:103C2C000004000CC3F82404FFF7ACBF00A0004054
:103C3C00104A4161136830B51546ABB9106083600A
:103C4C0011E0091B9C6841611A467CB123465C69F2
:103C5C008C42F6D9002CF4D052B19060836013B131
:103C6C005A69511A596130BD0022F0E72346F4E736
:103C7C002860F3E7F42A002010B500F0B9FA094BDC
:103C8C00094A196831B11368C41A4B69A34203D3AA
:103C9C001B1B4B61106003E0C01A002310604B61CA
:103CAC0010BD00BFF42A0020E42A0020074B1B683B
:103CBC0010B55C69064B1B6802201C4400F0C6FA68
:103CCC002046BDE8104000F099BA00BFF42A00204D
:103CDC00E42A002070B59DF8145005710025164695
:103CEC008560049ABDF81850C58004460260C0E98E
:103CFC0003360D4629B961610BB11146984796B14F
:103D0C00354602F0E0F90646FFF7B6FF2946204695
:103D1C00FFF78EFF054B1B68A34201D1FFF7C6FFCF
:103D2C00304602F0D6F9002070BD00BFF42A002006
:103D3C000C4A136800217BB183420AD1836879B1A4
:103D4C008B6083681BB15A6941690A445A6100202F
:103D5C00704719469B68EEE70028EFD002207047A9
:103D6C001360EEE7F42A002070B5124D02F0ABF9A7
:103D7C002C780646CCB9104B1C60104B1C60104BB9
:103D8C001C8000F0F3F9012000F060FA00F0ACFAAE
:103D9C000C4B0246186040F2E73123460A4827F0E4
:103DAC00BFFE0A4B186001232B70304602F091F9CC
:103DBC00002070BDE02A0020F42A0020E42A002014
:103DCC00EC2A0020F02A002018FCFFFFE82A002033
:103DDC002DE9F0410546F8B102F075F90F4F064692
:103DEC00FFF74AFF2846D7F80080FFF7A1FF0446EB
:103DFC0028B1304602F06DF92046BDE8F081A845A7
:103E0C003B6803D123B1FFF751FFF2E7002BF0D150
:103E1C00022000F029FAECE72224EDE7F42A002036
:103E2C00F0B50D4685B016461F46044680B1FFF727
:103E3C00CFFFBDF82C3002939DF828300022CDE93D
:103E4C000073294633462046FFF744FF05B0F0BD0A
:103E5C002220FBE738B50C46054698B191B10023FA
:103E6C000B7002F030F9084B1B6801210BB1227862
:103E7C001AB102F02EF9002038BD9D420CBF217002
:103E8C009B68F3E72220F7E7F42A0020F0B587B00F
:103E9C001F4600230D4616468DF817300446A0B178
:103EAC000DF11701FFF7D6FF9DF817207AB9BDF871
:103EBC00343002939DF830302946CDE9007320460A
:103ECC003346FFF707FF07B0F0BD2220FBE70320C6
:103EDC00F9E70000F8B50C460646C8B1C1B102F0CE
:103EEC00F2F80546FFF7C8FE73692360134B1B6895
:103EFC00B3420FD023B9284602F0EBF803201CE0A4
:103F0C00596922689B680A442260F1E700230FE09C
:103F1C00222012E00A4E276800F06AF93368C01AB2
:103F2C008742F3D900F064F93368C01A23681B1A6E
:103F3C002846236002F0CDF80020F8BDF42A0020BA
:103F4C00E42A002070B502F0BEF8064600F050F9E5
:103F5C00094B1C8805460120A4B200F09DF918B14C
:103F6C0000F046F901340546304602F0B2F8002262
:103F7C0042EA0500214670BDEC2A00200A4B1B6862
:103F8C00834210B50C460CD3084B19684FF47A7267
:103F9C000023A0FB010127F0C3FD013020600020AD
:103FAC0010BD2120FCE700BFE82A0020F02A0020E9
:103FBC00104B1A684FF47A7310B5A0FB0301A2B131
:103FCC00531E134211D1B2FA82F2C2F11F02C2F196
:103FDC002004A2F1200301FA04F420FA02F2224395
:103FEC0021FA03F342EA030010BD002327F098FDE9
:103FFC00FAE700BFF02A002000000000F8B51646D2
:10400C001BA3D3E900238B4208BF82422AD3174B50
:10401C001A684FF47A73A0FB034503FB0155C2B138
:10402C00531E13EA020014D1B2FA82F2C2F11F023B
:10403C00C2F12007A2F1200124FA02F305FA07F7D6
:10404C003B4325FA01F10B4325FA02F2C6E9003293
:10405C00F8BD00232046294627F062FDC6E9000181
:10406C000020F5E72120F3E7AFF30080F02A0020D1
:10407C00EFA7C64B37894100C2072DE9F84F04461C
:10408C000BD5374A138801339BB21380FFF7F4FD2D
:10409C00344B1B680BB1FFF709FEA3075DD5324EFD
:1040AC00DFF8C09000F0A4F835680746451B02F015
:1040BC000AF84FF0000A8046D9F80040002C48D08E
:1040CC006369AB4209D95D1B65613760FFF7EEFD93
:1040DC004046BDE8F84F01F0FCBF376023462A4646
:1040EC005969914209D8187994F804C0844588BF5D
:1040FC001C469B68521A002BF2D1404601F0E9FF96
:10410C00D4F81480C4F814A001F0DDFF83462046D7
:10411C00FFF70EFE584601F0DCFF23694BB101F0AE
:10412C00D2FF216983462046FFF782FD584601F0F5
:10413C00D0FFE36813B121682046984700F058F887
:10414C004744ED1B0446054401F0BDFF274680465D
:10415C00B2E7022000F088F8BAE7BDE8F88F00BF9C
:10416C00EC2A0020F42A0020E42A002010B51C4B75
:10417C0086B05968186803AA03C2197A53F8090F54
:10418C00117001909A8817489B79ADF8082001218D
:10419C008DF80A30002401F05BFB03A88DF80C406D
:1041AC008DF8104002F036FD01A901208DF8044075
:1041BC0002F010FD0C4A536A23F4FF6323F007034B
:1041CC00536240F2FF7313620120946002F01CFDF5
:1041DC00064B4FF00042C3F880211A6006B010BDA8
:1041EC00E4E80200A00914000020044000E100E013
:1041FC00014B9868704700BF00200440114A936837
:10420C00516D9269520704D4CA1A022A01D89942F4
:10421C000DD1C21A012A98BF981C0A4BB0F1FF3F6E
:10422C0028BF013058655A6A42F004025A62064AA5
:10423C00137833B103490B6D43F002030B65002374
:10424C001370704700200440981B00208207054A19
:10425C0000F00103516A48BF43F004030B4353625F
:10426C00704700BF00200440830700F0010209D50D
:10427C00074B0121197007490B6D23F0030342F022
:10428C0004020B6503494B6A23EA02034B62704735
:10429C00981B002000200440064B01289B6904D089
:1042AC00022805D1C3F38000704703F0010070476A
:1042BC00002070470020044010B501F004FF094AAB
:1042CC0093690446590703F0010003F0070348BF44
:1042DC0040F002001362FFF7CFFE2046BDE810400D
:1042EC0001F0F7BE00200440014801F0FFBB00BF05
:1042FC00A0091400044B4FF04042DA621A6B22F012
:10430C0040421A63704700BF00300E402C48F0B595
:10431C00002203682B4D114654592CB11E68AC1861
:10432C00002E36D1234601210832282AF4D101B1BE
:10433C0003602549254E0B680022144695592DB172
:10434C001F68B518002F2BD12B4601240832282AC0
:10435C00F4D104B10B6000681D4B026842B3DA69FA
:10436C00007922F0FF020243DA611A6B42F08042BC
:10437C0009681A630A68164BF2B1DA69097922F4F2
:10438C007F4242EA0122DA611A6B42F000421A6360
:10439C00F0BD1E792779B74284BF23460121C3E7BC
:1043AC001F7995F804C0BC453CBF2B460124CDE7D2
:1043BC001A6B22F08042DBE71A6B22F00042E6E730
:1043CC00042B0020142B0020082B00203C2B002059
:1043DC0000300E4008B51B4B1B4801221A700021FF
:1043EC00282227F06FFD28220021184827F06AFDAB
:1043FC00174A184B13601849184A13600A684B6D1A
:10440C00C2F30742FF2A02D0DBB2FF2B01D190236B
:10441C001922134802EB820103EBD1010160DB008E
:10442C000521B3FBF1F313440E4A1360FFF762FF4F
:10443C000D4B0122C3F880211A60FFF767FF0020A3
:10444C0008BD00BFF82A0020142B00203C2B0020B4
:10445C00042B00200C2B0020B081E00F082B002037
:10446C00FC2A0020002B002000E100E008490B6A28
:10447C000A6ADBB2D2B29342F9D1064A0520DB00BC
:10448C00B3FBF0F31068C31A03F3070040B2704794
:10449C0000300E40002B002070B5144C226B616A6A
:1044AC000A4011D5124B1B681E6836B100251D60E1
:1044BC005D60FFF7DBFF2946B0474FF00043E36236
:1044CC00BDE87040FFF722BF5300F9D5094B1B68BC
:1044DC001C6834B100221A605A60FFF7C7FF012133
:1044EC00A047024B4FF08042DA62E9E700300E4001
:1044FC00082B0020042B0020FFF7CEBF38B141B1B0
:10450C00013AB2F5006F044838BF002070470348E9
:10451C0070470148704700BF037000F0027000F054
:10452C000D490E4A0B7810B54BB9C2E90033C2E9FC
:10453C00023301240C7042F82300002010BD00232C
:10454C0052F823100029F6D08142F4D00133042B09
:10455C00F6D10348F2E700BF742B0020642B002037
:10456C00027000F038B504460D4601F0ACFDA2888F
:10457C0092B222B92A6001F0ACFD064838BD6388BE
:10458C00142202FB034308332B6001F0A2FD002030
:10459C00F4E700BF0B7000F038B504460D4601F08F
:1045AC0092FDA3889BB223B92B6001F092FD0C48BD
:1045BC0038BD6388E188142202FB034308332B6067
:1045CC0063885A1C92FBF1F301FB13239BB26380AB
:1045DC00A388013B9BB2A38001F07BFD0020E7E7A1
:1045EC000B7000F07FB5012380F82C3090F832303E
:1045FC0093B90C4A036803920022049002924A6811
:10460C000192012200920A68016980681C33FFF74D
:10461C00BDF907B05DF804FB012BEAD0002380F84C
:10462C002C30F6E7814E00007FB5012380F82D3049
:10463C0090F8323083B9026834320D4B0393002367
:10464C00049002934B680193012300930B68C1689B
:10465C004068FFF781F907E0012B02D1026828328C
:10466C00EBE7002380F82D3007B05DF804FB00BFAA
:10467C0081460000F7B5906A01A91446FFF772FF56
:10468C00144B984220D0019B00251D619D6001F0C8
:10469C001AFD019AD668074626B1D2E900232946AD
:1046AC002046B04701A9A06AFFF776FFA06A83886D
:1046BC009BB263B101A9FFF755FF01992046FFF7A3
:1046CC00B3FF384601F005FD012003B0F0BD84F8BE
:1046DC002D30F6E70B7000F0427E30235343044A32
:1046EC001A44437F03EBC2039B001868C0B27047A7
:1046FC001CA0104213B51D4A002352F82340617FC1
:10470C0081420ED00133042BF7D102B010BD00282A
:10471C00FBD19DF80730002BF7D06068FFF750F9FC
:10472C00F3E794F83130022BEFD12046FFF7D4FF9A
:10473C00637D2075022BE8D194F82E3003F0FF0234
:10474C00002BE2D102A9606801F8012DFFF798F95E
:10475C00237D1BB194F82F30002BD8D0002384F884
:10476C002F306068FFF74CF9CFE700BF642B0020B7
:10477C0090F8323053B903680122DA601A69D00715
:10478C00FCD55A6F42F001025A677047012B0CD1CD
:10479C0003685A6C9107FCD401225A609A68D207BC
:1047AC00FCD55A6D42F001025A65704790F83230D0
:1047BC003BB903685A6F22F001025A670222DA6091
:1047CC007047012B09D103685A6C9207FCD45A6DBF
:1047DC0022F001025A6502225A60704710B5044655
:1047EC00FFF784F80021201DFFF70EF8014608B1F1
:1047FC00044810BD04F10800FFF706F80028F8D0B3
:10480C00F6E700BF0E7000F0F8B5044617460D46EB
:10481C0001F059FCA388E2889A42064605D8002389
:10482C003B6001F056FC1648F8BD2388142202FBAD
:10483C000343083305F1100C2A4603CA624518607D
:10484C005960154603F10803F6D1106818602388E7
:10485C00E188142202FB034308333B6023885A1C73
:10486C0092FBF1F301FB13239BB22380A38801334A
:10487C009BB23046A38001F02CFC0020D4E700BF93
:10488C000A7000F073B504460D46C07DE67E002923
:10489C0034D001230422314601F032FF01230222DD
:1048AC00217F207E01F02CFF94F83130022B16D1A1
:1048BC0000230122617F607E01F022FF002304228D
:1048CC00A07EA17F01F01CFF0123627F607E01931B
:1048DC000093114601F0C8FE002002B070BD032BFE
:1048EC00FAD100230122617F607E01F009FF0023D1
:1048FC000422A17FA07E01F003FFEDE70B460A46E0
:10490C00314601F0FDFE2B462A46217F207E01F028
:10491C00F7FE94F83130022B10D12B462A46617FDA
:10492C00607E01F0EDFE2B462A46A07EA17F01F0B1
:10493C00E7FE627F607E01950123C9E7032BCBD193
:10494C002B462A46617F607E01F0DAFE2B462A4612
:10495C00CFE790F8323013B9036818697047012B10
:10496C001CD103689B6803F00200DA0748BF40F0D3
:10497C000100590748BF40F008001A0748BF40F033
:10498C002000D90648BF40F040009A0648BF40F0CE
:10499C0080005B0603D540F4005070470020704740
:1049AC002DE9F3410D460446002879D001F08BFB2C
:1049BC00012D06463BD1A36A9B889BB2002B3DD0B0
:1049CC006068FFF73DF80023A06A84F82D308388D7
:1049DC009BB273B101A9FFF7C5FD01996068364F11
:1049EC000831FFF775F8019B1F61A06A83889BB2A1
:1049FC0053BB2046FFF7ADFF8304FAD5023D012DD2
:104A0C0010D8A068FFF71CF80023606A84F82C30DB
:104A1C0083889BB23BBB94F83130032B02D02046E9
:104A2C00FFF7C4FE304601F054FB002009E0022DD4
:104A3C0038D1636A9B889BB2002BDFD101F049FB14
:104A4C001E4802B0BDE8F08101A9FFF7A5FD019B4E
:104A5C00D3F80C80B8F1000FC7D09B680022394600
:104A6C002046C047C1E76946FFF77CFD0099A06866
:104A7C00114F0831FFF72CF8009B1F61606A838887
:104A8C009BB2002BC7D06946FFF786FD009BDD6803
:104A9C00002DF3D09B68002239462046A847EDE74D
:104AAC000748CEE7032DA9D1A36A9B889BB2002BA4
:104ABC0086D1636A80E700BF097000F0087000F0CF
:104ACC00027000F0436A9888C0B270472DE9F34138
:104ADC000546406A84889846A4B200230E461746C1
:104AEC00CDE900333CB16946FFF73CFD01A9044612
:104AFC00A868FEF7EDFF009971B16CB94868019B8D
:104B0C00C01A3860C8F800300B6833602846FFF7CD
:104B1C0020FF02B0BDE8F0810021C8F80010396018
:104B2C003160F3E7836A9888C0B270472DE9F3418E
:104B3C000546806A84889846A4B200230E46174620
:104B4C00CDE900333CB16946FFF70CFD01A90446E1
:104B5C006868FEF7BDFF009971B16CB94868019B9C
:104B6C00C01A3860C8F800300B6833602846FFF76D
:104B7C00F0FE02B0BDE8F0810021C8F800103960E9
:104B8C003160F3E7007D70472DE9F04104460E4695
:104B9C001746FFF7B3FC804650BB092001F0B8FA6A
:104BAC000546A26A93889BB213B194F82E3013B3C6
:104BBC0094F8322022BB23681D6915F0020533D00E
:104BCC00012384F83030002A3FD13744BE4220689C
:104BDC0036D103699E06FCD555B994F83230002BBA
:104BEC0042D123685A6F22F002025A670822DA6017
:104BFC004046BDE8F081002DD4D0FEF78BFFD0E706
:104C0C00012A1BD123689D6815F00205D8D1596C77
:104C1C008807FCD40421596099688907FCD5596D23
:104C2C0041F002015965CBE70421D9601969890764
:104C3C00FCD5596F41F002015967C1E70025BFE768
:104C4C0016F8011B02F05EF9C0E7012AD0D13744F7
:104C5C00B742206803D183681907FCD5BCE716F866
:104C6C00011B01F086FEF3E7012BC1D123685A6CBE
:104C7C009207FCD45A6D22F002025A6508225A603F
:104C8C00B6E7000010B50446B0B190F82E3033B939
:104C9C0090F83130022B0AD06068FEF791FE94F840
:104CAC002E300133DBB284F82E30002010BDFFF71C
:104CBC0013FD0028F3D1EFE70048F7E7027000F08E
:104CCC0010B50446D0B190F82E30CBB190F82E3000
:104CDC00012B06D190F83130022B0AD06068FEF718
:104CEC008FFE94F82E30013BDBB284F82E3000207E
:104CFC0010BDFFF7F1FC0028F3D1EFE70148F7E70F
:104D0C000148F5E7027000F0057000F037B590F837
:104D1C003150022D044618D1A37F407D01229A40C8
:104D2C00A37E30215943134B0B4410B903F180631C
:104D3C0003E0012805D103F1C0631A60002003B021
:104D4C0030BD217D0029F6D1F0E7012DF6D1037D90
:104D5C0073B911238DF80730FFF794FF2A460DF134
:104D6C0007012046FFF710FF2046FFF7A9FFE5E7F4
:104D7C001323EFE70CA0004090F83130032B05D043
:104D8C000229417518BF0175FFF7C0BF0048704775
:104D9C00057000F010B5044600283AD00321FFF747
:104DAC00FFFD00212046FFF7E7FF00212046FFF71B
:104DBC0069FD94F8323003BB23680A22DA600021C3
:104DCC00206A00F045FD94F83130032B03D000210C
:104DDC00607FFEF7FBFE6068FEF762FDA068FEF7E1
:104DEC005FFDFEF73DFD636A0020188058809880B7
:104DFC00A36A18805880988010BD012BDFD12068E1
:104E0C0001F0A3FD23685A6C9207FCD40A225A6065
:104E1C00D5E70148F0E700BF027000F0F0B587B0AD
:104E2C0004461646FFF76AFB0546F0B9CDE90116B4
:104E3C0004936A460E4B606A039601A90593FFF72B
:104E4C00E3FC054688B994F82C3073B92046FFF77B
:104E5C008FFC00992046FFF7C5FB94F83130032BEB
:104E6C0003D025752046FFF751FF284607B0F0BD4B
:104E7C00017000F073B5506A01A91446FFF772FB7C
:104E8C00334B98422FD094F83200019B002836D136
:104E9C002268116C11F4007128D02E4919619860A8
:104EAC004FF40073936401F00EF90199CD68064636
:104EBC0035B14A688B682046D31A0A680969A84735
:104ECC0001A9606AFFF768FB606A8588ADB2002DA6
:104EDC002FD001A9FFF746FB01992046FFF782FB73
:104EEC00304601F0F6F8012002B070BD106CC5051B
:104EFC001BD51948186199604FF48073D2E70128CB
:104F0C0013D12268D16A11F0800106D011491961C0
:104F1C000021996080235363C5E7D06A400604D50D
:104F2C000D48186199604023F5E700221A619A60D8
:104F3C00B9E7012323752046FFF7E8FE94F83130DA
:104F4C0084F82C50032BCBD02046FFF72FFCC7E75F
:104F5C000B7000F00D7000F00C7000F02DE9F041BA
:104F6C00094F04460D460FCF88B001AE0FC697E827
:104F7C00070086E80700002C00F0A98245B9034E13
:104F8C00304608B0BDE8F08104E90200037000F07F
:104F9C0038220021204626F095FF2046FFF7C0FA64
:104FAC0006460028ECD12B7C84F83130CB4A2B6898
:104FBC002360934284F8320040F07B81C84B23621B
:104FCC00C84BE3604FF440232361D5E90623002648
:104FDC00626216805680968084F82C60A3621E80D4
:104FEC005E809E806B6803936B89ADF81430AB893F
:104FFC00ADF81230AB7B8DF810300121EB7BBA4849
:10500C0084F82D6084F82F6005278DF816308DF804
:10501C00117000F01DFC0121B44800F019FC0121B5
:10502C00206A00F015FC01A928688DF8046001F0D5
:10503C002BFF28686A7A816F2B7ADFF8A0C221F4E3
:10504C00F85121F01F01114341EA0321816703212B
:10505C0041672068604540F05781BB4216D9981FC4
:10506C00042840F26C81A3F10B00B84240F2698134
:10507C00A3F11100062840F26681A3F1180106295C
:10508C0040F263811F2B14BFFF263E46042AE675AF
:10509C0040F25D81511F042940F25B81A2F10A01AB
:1050AC00052940F25881A2F11001062940F25581E0
:1050BC00A2F11701072940F252811F2A14BFFF21C8
:1050CC0000212176002B58D0012B56D0022B54D026
:1050DC00032B52D0042B50D0052B4ED0062B00F0B6
:1050EC004881072B00F04781082B00F04681092BE3
:1050FC0000F045810A2B00F044810B2B00F04F810E
:10510C000C2B00F02E810D2B00F02D810E2B00F0BE
:10511C002C810F2B00F02B81102B00F02A81112BEE
:10512C0000F02381122B00F02281132B00F021813F
:10513C00142B00F02081152B00F01F81162B00F092
:10514C001E81172B00F01D81182B00F01C81192BD0
:10515C0000F01B811A2B00F01A811B2B00F0198117
:10516C001C2B00F018811D2B00F017811E2B00F05A
:10517C0016811F2B0CBF0723FF23E376002A00F0B8
:10518C008881012A00F01D81022A00F08481032A03
:10519C0000F08381042A00F08281052A00F0078147
:1051AC00062A00F00681072A00F00581082A00F083
:1051BC000481092A00F003810A2A00F072810B2A6B
:1051CC0000F071810C2A00F0EC800D2A00F0EB80CD
:1051DC000E2A00F0EA800F2A00F0E980102A00F075
:1051EC00E280112A00F0E180122A00F0E080132AFC
:1051FC0000F0DF80142A00F0DE80152A00F0DD803C
:10520C00162A00F0DC80172A00F04181182A00F0E1
:10521C004081192A00F0D5801A2A00F03C811B2A03
:10522C0000F03B811C2A00F03A811D2A00F03981E4
:10523C001E2A00F038811F2A14BFFF230023237776
:10524C006B7C6376AB7C6377EB7CA3762B7DA3774F
:10525C0001212046FFF716FB064600287FF490AE8E
:10526C0000F031FF2F7C032F804640F020812B680B
:10527C002A8CDA675A6E42F004025A665A6F42F070
:10528C0030025A6728684FF0FF3383642B7C032B62
:10529C000CBF0521042101F0C7FD2B684FF44062BF
:1052AC00DA602046FFF79AFA0646404600F011FFF6
:1052BC0066E60F4A934206D10E4B23620E4BE36017
:1052CC004FF4502380E60D4A93427FF458AE0C4BBA
:1052DC0023620C4BE3604FF4602375E60000014041
:1052EC000032040001000C004041050000350A00AA
:1052FC00000401400042040001000D0000080140C0
:10530C000052040001000E00DFF8D4C160455AD1F0
:10531C00052B7FF6BBAE981F042810D9A3F10B0008
:10532C0005280ED9A3F1110006280CD9A3F11801F8
:10533C0006290AD91F2B14BFFF260526A6E601262F
:10534C00A4E60226A2E60E46A0E63E469EE6002114
:10535C00B7E60121B5E60221B3E60321B1E605214A
:10536C00AFE6072309E7082307E7092305E70A2324
:10537C0003E70B2301E70C23FFE60D23FDE60E23C9
:10538C00FBE60F23F9E60023F7E60123F5E60223FB
:10539C00F3E60323F1E60423EFE60523EDE606230B
:1053AC00EBE608234BE7092349E70A2347E70B23DE
:1053BC0045E70C2343E70D2341E70E233FE70F237B
:1053CC003DE702233BE7434988427FF4D8AD002BED
:1053DC0047D0591E0C2946D9A3F10E0106298CBFC2
:1053EC00FF2105210C2AE17541D9A2F10D010629F5
:1053FC003BD9A2F11401092939D91F2A14BFFF2165
:10540C0000212176002B3ED0591E0C2931D90E2BB0
:10541C0031D00F2B31D0102B31D0112B31D0122B8E
:10542C0031D0132B31D0142B14BFFF2307230C2A9C
:10543C00E3763AD90D2A2AD00E2A2AD00F2A2AD05E
:10544C00102A2AD0112A2AD0122A2AD0132A2AD07A
:10545C00A2F11403092B28D91F2A14BFFF230523FB
:10546C00EDE61946BEE7FF21BCE70521C9E7FF21A0
:10547C00C7E7FF23DBE70023D9E70123D7E70323A3
:10548C00D5E70423D3E70523D1E70623CFE7002391
:10549C00D5E60123D3E60323D1E60423CFE6052387
:1054AC00CDE60623CBE60723C9E6FF23C7E6022F8A
:1054BC007FF4E8AE607F0849FEF788FBFEF778FBC7
:1054CC00A675267567752046FFF720FCDAE6034EB5
:1054DC0056E500BF0008014001470000027000F0D3
:1054EC000004014090F83120012A10B5034610D178
:1054FC0002290ED0827D8A4201D1002010BD9975FF
:10550C0011B9FFF7DDFBF8E70129F6D1FFF7BAFB7C
:10551C00F3E70148F2E700BF057000F0F0B587B083
:10552C0004461646FEF7EAFF054600BBCDE9011618
:10553C0004936A460F4BA06A039601A90593FFF7E3
:10554C0063F9054698B994F82D3083B900F0BBFD8A
:10555C00A36A9B889BB2064633B100992046FFF79D
:10556C0063F8012384F83030304600F0B2FD284651
:10557C0007B0F0BD017000F070B588B00D220021AD
:10558C00294C2A4E04A826F09DFC0025022301215B
:10559C0027488DF81010CDE9015503958DF80A3088
:1055AC0000F056F9294601AA204601F0D4FB4FF62B
:1055BC00FF73E3618DF81250354604A9204601F0C3
:1055CC0077FB1C4800F092FA9DF81230D84001335A
:1055DC00DBB20A2B30608DF8123002D8164B984291
:1055EC00EBD81648164C00F081FA1649B1FBF0F1D5
:1055FC002868154A0025E1FB004500232046294672
:10560C0026F08EFA114B084A1860114B00201870C6
:10561C00936923F0100393610E4B4FF40062C3F8AF
:10562C0080211A6008B070BD00800140782B0020EA
:10563C00000204004041050080841E00700002003E
:10564C0020A1070000B0710B40420F007C2B002002
:10565C00802B002000E100E01E4BF7B519681E4CB2
:10566C001E4A1F4E0025E0FB01452046294600231B
:10567C0026F056FADFF86CC04FF6E85400254FF6CA
:10568C00E75E4FF0FF378D4208BF844211D380B2E2
:10569C0060B1144A516A89B2536A9BB2ADF80630B4
:1056AC00BDF806305B1A9BB29842F5D8002003B0C7
:1056BC00F0BDDCF8242092B2DCF824309BB2ADF8BB
:1056CC000430BDF804309B1A9BB27345F4D9801991
:1056DC007941D8E7782B002020A1070040420F0029
:1056EC001802FFFF00800140044BDA68D20604D593
:1056FC0010225A61024B01221A707047008001403F
:10570C00802B00200C4B984210D90C4B984210D98E
:10571C00022201230A490B600A49D1F8003123F017
:10572C00807343EA0263C1F80031704700221346CC
:10573C00F0E70122FBE700BF0048E8010090D0032E
:10574C004000C84300400E400E4B30B50E4C5B6819
:10575C00C9B2002304EBC30215798D4203D154F86E
:10576C00335085420BD20133052BF3D1032205496B
:10577C004B6823F0407343EA02634B6030BD5279AF
:10578C00F5E700BF00000E4030E9020038B5074CC9
:10579C0041F67133256C236401F02AFC0021FFF7DC
:1057AC00D3FF0DB10023236438BD00BF00000E40B1
:1057BC00044B1B685B0603D4034A1368002BFCD113
:1057CC00704700BF3C300E40C800C64308B5FFF719
:1057DC00EFFF024B5868C0F3014008BD00300E408B
:1057EC00044BD3F84421D20703D4D3F84021104200
:1057FC00FBD1704700400E400C4AD2F89030516AF1
:10580C000B4B21F0300141F0100110B55162146BBB
:10581C00C0F3C31103310F2903EA040328BF0F217E
:10582C00034343EA0173136310BD00BF00400E40F5
:10583C0000F8FF0F38B5054C41F67133256C236425
:10584C00FFF782FF0DB10023236438BD00000E402A
:10585C00C0F30322013A38B50546092A13D8DFE80C
:10586C0002F023131212051619121C20104C0020E2
:10587C00C5F3043508B1FFF7B3FF04F1047405EB6D
:10588C00C404A400216038BD00200A4CF0E70120BC
:10589C00094CEDE71020094CEAE74FF48030084C36
:1058AC00E6E70020074CE3E70020074CE0E700BFE9
:1058BC00B0400E40C0400E40E0400E40E8400E406C
:1058CC00F0400E4050410E4000400E40C0F3031318
:1058DC00013B092B2AD8DFE803F0050B0F19292906
:1058EC001F23374B274BD3F80001C0F3042070471C
:1058FC00244BD3F81401F8E7224BD3F80001C0F382
:10590C000060431C01209840013870471D4BD3F8B0
:10591C000C01C0F3082070471A4BD3F80801F8E7C4
:10592C00194B984204D0194B984207D0002070476D
:10593C00144BD3F8203103F00F03E3E7114BD3F8EA
:10594C002031C3F30113DDE7114B98420CD003F562
:10595C00B01303F580539842E8D10A4BD3F82801D1
:10596C00C0F30120031DCDE7064BD3F82831E8E73F
:10597C00084B9842DAD1034BD3F8300100F0030006
:10598C00704700BF00400E408006160080162E00A7
:10599C0090171A00A009140008B5FFF797FF013003
:1059AC0008BD000000F00F000138072848D8DFE8D8
:1059BC0000F0040F1947232D4735244BD3F89430AE
:1059CC0003F00703023B052B3CD8214AD05C7047FF
:1059DC001E4BD3F8803003F00703013B042B33D864
:1059EC001C4AF3E7194BD3F8843003F00703013B4F
:1059FC00042B29D8184AE9E7144BD3F8883003F064
:105A0C000703013B042B1FD8144ADFE70F4B1B6F16
:105A1C0013F0010F14BF0920072070470B4BD3F86C
:105A2C005C3103F03003202B06D0302B06D0102B2A
:105A3C000CBF0720012070470420704708207047D6
:105A4C0000207047052070470120704700400E4031
:105A5C0020E9020026E902002BE9020026E90200F7
:105A6C0008B50146FFF79EFF1C4B994212D01C4B08
:105A7C00994213D01B4B994204D11B4BD3F8800095
:105A8C0000F007000138042825D8DFE800F00B0FE0
:105A9C0017130B00144BD3F88400F1E7124BD3F817
:105AAC008800EDE7BDE8084001F006BBBDE8084002
:105ABC0001F008BBBDE8084001F001BB01F09CFA05
:105ACC00094BD3F80031C3F300635A1C01239340F4
:105ADC00B0FBF3F008BD0020FCE700BF0300200082
:105AEC000500240002001E0000400E4000F4781354
:105AFC00B3F5B01F10B504467DD029D8B3F5202FCF
:105B0C0007D00AD8B3F5003F62D0B3F5802F54D03C
:105B1C005BB9BDE8104001F06FBAB3F5602F00F02F
